:020000040800F2
:100000000000022055360008AD340008AF34000867
:10001000B1340008B3340008B53400080000000013
:1000200000000000000000000000000071600008F7
:10003000B73400080000000011610008BD5D000831
:10004000A5360008A5360008A5360008A536000824
:10005000A5360008A5360008A5360008A536000814
:10006000A5360008B9340008C3340008A5360008D6
:10007000A5360008A5360008A5360008A5360008F4
:10008000A5360008A5360008A5360008A5360008E4
:10009000A5360008A5360008A5360008CD340008AE
:1000A000A5360008A5360008A5360008A5360008C4
:1000B000A5360008A5360008A5360008A5360008B4
:1000C000A5360008A5360008A5360008A5360008A4
:1000D000A5360008A5360008A5360008A536000894
:1000E000A5360008A5360008A5360008A536000884
:1000F000A5360008A5360008A5360008A536000874
:10010000A5360008A5360008A5360008A536000863
:10011000A5360008A5360008A5360008E534000815
:10012000A5360008A5360008A5360008A536000843
:10013000A5360008A5360008A5360008A536000833
:10014000A5360008A5360008A5360008A536000823
:10015000A5360008A5360008A5360008A536000813
:10016000A5360008A5360008A5360008A536000803
:10017000A5360008A5360008A536000800000000D6
:08018000A5360008A5360008B1
:1001900010B5054C237833B9044B13B10448AFF3C1
:1001A00000800123237010BDF00800200000000033
:1001B000A48E000808B5034B1BB103490348AFF3F5
:1001C000008008BD00000000F4080020A48E000894
:1001D00053B94AB9002908BF00281CBF4FF0FF31AE
:1001E0004FF0FF3000F074B9ADF1080C6DE904CEAA
:1001F00000F006F8DDF804E0DDE9022304B0704702
:100200002DE9F047089D04468E46002B4DD18A42C9
:10021000944669D9B2FA82F252B101FA02F3C2F1FC
:10022000200120FA01F10CFA02FC41EA030E94408D
:100230004FEA1C48210CBEFBF8F61FFA8CF708FBAE
:1002400016E341EA034306FB07F199420AD91CEB86
:10025000030306F1FF3080F01F81994240F21C81B8
:10026000023E63445B1AA4B2B3FBF8F008FB103300
:1002700044EA034400FB07F7A7420AD91CEB040435
:1002800000F1FF3380F00A81A74240F20781644405
:10029000023840EA0640E41B00261DB1D44000238A
:1002A000C5E900433146BDE8F0878B4209D9002DEE
:1002B00000F0EF800026C5E9000130463146BDE878
:1002C000F087B3FA83F6002E4AD18B4202D38242E2
:1002D00000F2F980841A61EB030301209E46002D91
:1002E000E0D0C5E9004EDDE702B9FFDEB2FA82F2E6
:1002F000002A40F09280A1EB0C014FEA1C471FFA44
:100300008CFE0126200CB1FBF7F307FB131140EA2A
:1003100001410EFB03F0884208D91CEB010103F1F7
:10032000FF3802D2884200F2CB804346091AA4B2B9
:10033000B1FBF7F007FB101144EA01440EFB00FE8D
:10034000A64508D91CEB040400F1FF3102D2A645F2
:1003500000F2BB800846A4EB0E0440EA03409CE791
:10036000C6F12007B34022FA07FC4CEA030C20FA3E
:1003700007F401FA06F31C43F9404FEA1C4900FA5E
:1003800006F3B1FBF9F8200C1FFA8CFE09FB1811DB
:1003900040EA014108FB0EF0884202FA06F20BD94E
:1003A0001CEB010108F1FF3A80F08880884240F29E
:1003B0008580A8F102086144091AA4B2B1FBF9F0E2
:1003C00009FB101144EA014100FB0EFE8E4508D9DD
:1003D0001CEB010100F1FF346CD28E456AD9023862
:1003E000614440EA0840A0FB0294A1EB0E01A14247
:1003F000C846A64656D353D05DB1B3EB080261EBB5
:100400000E0101FA07F722FA06F3F1401F43C5E98E
:10041000007100263146BDE8F087C2F12003D840C4
:100420000CFA02FC21FA03F3914001434FEA1C4706
:100430001FFA8CFEB3FBF7F007FB10360B0C43EAF8
:10044000064300FB0EF69E4204FA02F408D91CEBA8
:10045000030300F1FF382FD29E422DD902386344A6
:100460009B1B89B2B3FBF7F607FB163341EA034146
:1004700006FB0EF38B4208D91CEB010106F1FF3895
:1004800016D28B4214D9023E6144C91A46EA00468C
:1004900038E72E46284605E70646E3E61846F8E61E
:1004A0004B45A9D2B9EB020864EB0C0E0138A3E767
:1004B0004646EAE7204694E74046D1E7D0467BE748
:1004C000023B614432E7304609E76444023842E7C0
:1004D000704700BF844641EA000313F003036DD167
:1004E000403A41D351F8043B40F8043B51F8043BF7
:1004F00040F8043B51F8043B40F8043B51F8043BFE
:1005000040F8043B51F8043B40F8043B51F8043BED
:1005100040F8043B51F8043B40F8043B51F8043BDD
:1005200040F8043B51F8043B40F8043B51F8043BCD
:1005300040F8043B51F8043B40F8043B51F8043BBD
:1005400040F8043B51F8043B40F8043B51F8043BAD
:1005500040F8043B51F8043B40F8043B51F8043B9D
:1005600040F8043B403ABDD2303211D351F8043B3D
:1005700040F8043B51F8043B40F8043B51F8043B7D
:1005800040F8043B51F8043B40F8043B103AEDD2EC
:100590000C3205D351F8043B40F8043B043AF9D23D
:1005A000043208D0D2071CBF11F8013B00F8013B10
:1005B00001D30B8803806046704700BF082A13D31D
:1005C0008B078DD010F003038AD0C3F10403D21A35
:1005D000DB071CBF11F8013B00F8013B80D331F869
:1005E000023B20F8023B7BE7043AD9D3013A11F8E9
:1005F000013B00F8013BF9D20B7803704B78437054
:100600008B78837060467047F6EE007A60EE277A4A
:1006100010EE103A074AA2EB630307EE103A67EEBA
:10062000277A67EE277AB7EE080A30EE670A27EED8
:10063000000A7047865A375F10B52DED048B0446CB
:10064000D0F8EC3093ED009A5C4A82ED009A93ED7D
:10065000018A5B4A82ED008AD3ED028A594AC2EDD3
:10066000008AD3ED039A584BC3ED009A69EE097ADC
:1006700028EE080A77EE807A28EEA80A77EE807ACC
:1006800029EEA90A37EE800AFFF7BEFF4F4B83ED34
:10069000000A00230BE0D4F8EC2002EB8302D2ED39
:1006A000007A67EE807AC2ED007A0133DBB2032B69
:1006B000F1D9474B93ED6F7A28EE077AD4F80021F1
:1006C000F6EE007A27EE277A82ED047A93ED6F7AC0
:1006D00028EE877AD4F8002127EE277A82ED057A72
:1006E00093ED6F7A29EE477AD4F8002127EE277A26
:1006F00082ED0A7A93ED6F7A29EE877AD4F8002199
:1007000027EE277A82ED0B7A93ED6F7A69EEC79A1E
:10071000D4F8002169EEA79AC2ED109A93ED6F7A92
:1007200029EE479AD4F8002129EE279A82ED119AF2
:1007300093ED6F7A68EE878AD4F8002168EEA78A75
:10074000C2ED168A93ED6F7A28EE478AD4F800211D
:1007500028EE278A82ED178AD4F8F82093ED747A70
:10076000D2ED1C6AC6EE877AC2ED1C7AD4F8F82066
:1007700093ED747AD2ED236AC6EE877AC2ED237ABE
:10078000D4F8F83093ED1C7ADFED127AB4EEE77A04
:10079000F1EE10FA01DDC3ED1C7AD4F8F83093EDD8
:1007A000237ADFED0C7AB4EEE77AF1EE10FA01DD90
:1007B000C3ED237ABDEC048B10BD00BFA40B002059
:1007C000AC0B0020B40B0020BC0B0020C00B0020A1
:1007D000A009002000401C4638B504469022D0F8FD
:1007E000F8100848FFF776FE48252A46D4F81C1171
:1007F0000548FFF76FFE2A46D4F80C110348FFF7AF
:1008000069FE38BD00000020540900200C090020BA
:100810002DE9F84F044600F1780500F180073946CC
:10082000284603F009FA84F8C800B4F87830A4F830
:10083000A830B4F85A30A4F8AA3004F1580A04F1E8
:10084000A80842465146284603F022F984F8C80019
:10085000B4F8A830A4F8B030B4F88230A4F8B230BC
:1008600004F1B0094A463946404603F011F984F8CC
:10087000C800B4F89030A4F8A030B4F89230A4F8CE
:10088000A23004F1A0052A4604F19001484602F086
:100890009FFF84F8C8004946284602F0EBFF84F821
:1008A000C800D4F8EC30D3ED007AC44AC2ED007A27
:1008B00093ED016AC24A82ED006AD3ED026AC14A31
:1008C000C2ED006A93ED037ABF4B83ED007AB4F872
:1008D0007830A4F8B8300123A4F8BA3066EE075A8D
:1008E00027EEA65A75EEC55AD4F82C3175EEA55AE6
:1008F000C3ED005A67EE865A26EE875A75EE855A82
:10090000D4F82C3175EEA55AC3ED015A67EEA77ADB
:1009100026EE066A77EEC67A66EEA66A77EEE67A85
:1009200027EE077AD4F82C3177EE877AC3ED027A76
:10093000002512E0D4F82C3103EB850393ED000A77
:10094000B0EEC00A07F074FE05F160029F4B03EBA6
:10095000820383ED010A0135EDB2022DEAD9B4F824
:100960004830A4F8C0304FF0010BA4F8C2B004F135
:10097000B80504F1C0063246294604F1480003F0E8
:100980000DF984F8C800B4F8C030A4F8A830A4F871
:10099000AAB042463146484603F07AF884F8C800C7
:1009A000A4F8B8B0B4F8C030A4F8BA30294630463C
:1009B00003F042F984F8C800DFF810B20BF5E072DA
:1009C0004146284603F064F884F8C8009BED727A2B
:1009D000DBED737AF6EE006A67EEA66AB4EEE67AAD
:1009E000F1EE10FA02D501228BF83821B4EEE77A45
:1009F000F1EE10FA45DD754B93F83831002B40D0FD
:100A0000724B93F83931DBB1704AD2F84031D2F8E9
:100A10004411013341F10001C2F84031C2F84411E0
:100A20006A4BD3F84021D3F84431332A73F10003E1
:100A30000CD30023654A82F8383184F82C3046E024
:100A4000624B00200021C3E95001E9E7227B604DA1
:100A50002B8803FB02F2D4F8EC10D4F8E800FFF77F
:100A600039FD227B2B8802FB03F303FB02F2D4F84F
:100A7000FC10D4F8F800FFF72DFD012384F82C308A
:100A80009AE0DFED546A67EEA66AB4EEE67AF1EE1C
:100A900010FA0FDD4D4B93F838315BB137EEC77A62
:100AA000DFED4D6A67EEA67AC7EE276A474BC3EDC6
:100AB000676A04E0454B4FF07E52C3F89C21434BDC
:100AC00000200021C3E95001002384F82C30B4F841
:100AD0005830A4F8A830B4F88230A4F8AA304246BE
:100AE0003946504602F0D4FF84F8C80004F1980754
:100AF0003A464946404602F0CBFF84F8C80000233E
:100B00000EE0D4F81C2102EB8302304991ED677AA4
:100B1000D2ED007A67EE877AC2ED007A0133DBB25C
:100B2000B4F89820B4F89A1001FB02F29342E8DB83
:100B3000042201E00132D2B2052A1DD80023022B83
:100B4000F8D8D4F81C1102EB4200184401EB8001E4
:100B500002F15C0C1D4800EB8C00D0ED016ADFED6A
:100B60001F7A86EEA77AD1ED007A67EE877AC1ED1B
:100B7000007A0133DBB2E2E7B4F89830A4F8B83079
:100B80000123A4F8BA302A463146384602F080FFE5
:100B900084F8C8000D4B93F83831002B4DD1D4F8B0
:100BA000BC300022DA6004F13002294604F138003A
:100BB00002F00EFE84F8C800BDE8F88FA00B0020FC
:100BC000A80B0020B00B0020B80B0020A0090020CB
:100BD000AA0D0020CDCCCC3D6666663FDA0FC93F3A
:100BE0000133DBB2052BDAD8D4F8BC10980001EB46
:100BF000830191ED007A124AD2ED6F7ADFED116A2E
:100C000067EEA67AB4EEE77AF1EE10FA01DDC1EDF7
:100C1000007AD4F8BC20024492ED007A0849D1ED64
:100C20006F7ADFED096A67EEA67AB4EEE77AF1EE45
:100C300010FAD5D5C2ED007AD2E70423D2E700BF7F
:100C4000A00900200AD7233C0AD723BC10B52DEDFC
:100C5000048B0446D0F8EC3093ED009A39EE099AF3
:100C60002E4A82ED009A93ED018A38EE088A2C4ACA
:100C700082ED008AD3ED029A79EEA99A294AC2ED53
:100C8000009AD3ED038A78EEA88A274BC3ED008A39
:100C9000827B264B1B8802FB03F3027B03FB02F2E1
:100CA0000021D0F80C0107F021FAD4F80C31F1EE54
:100CB000697AC3ED007AD4F80C31C3ED018AD4F817
:100CC0000C31B1EE497A83ED027AD4F80C3183ED20
:100CD000038AD4F80C3183ED068AD4F80C3183ED05
:100CE000079AD4F80C31C3ED088AD4F80C31C3ED5F
:100CF000099AD4F80C3183ED0C9AD4F80C31B1EE8A
:100D0000488A83ED0D8AD4F80C31C3ED0E7AD4F8FD
:100D10000C31C3ED0F8ABDEC048B10BD840B002099
:100D2000880B00208C0B0020900B0020AA0D0020C7
:100D300038B52F4B01221A7083ED6C0AC3ED6D0A92
:100D400083ED6E1A2B4AC3F8CC21002283F8382198
:100D500000200021C3E95001C3E95201F7EE007AF7
:100D6000F4EEE71AF1EE10FA01DDF0EE671A204C0E
:100D7000C4ED741A84ED642A032300220621201D89
:100D800001F050F804F5E4730122114604F5E07017
:100D900002F06CFDD4F8EC304FF07E521A60D4F8BB
:100DA000EC2000235360D4F8EC209360D4F8EC20BE
:100DB000D360114BC4F8D030104BC4F8D430104B72
:100DC000C4F8D8300F4BC4F8DC30012384F82E303F
:100DD00084F82F3090252A460B49D4F80401FFF7F8
:100DE00079FB2A460949D4F8FC00FFF773FB38BDAC
:100DF000A009002077CC2B32D9070008390600085B
:100E00004D0C000811080008C48E000800000020E6
:100E100010B52DED088BF0EE409AB0EE608AB0EE82
:100E2000419AB0EE61BAF0EE42AAB0EE62AAF0EEDC
:100E3000438A894B1B78002B00F0B880864CC4EDA8
:100E40006F8A94ED580A39EEC00A84ED5B0AD4ED3E
:100E5000590A38EE608A84ED5C8A94ED5A1A39EEAC
:100E6000411A84ED5D1AF6EE007A20EE279A29EEFB
:100E7000289A7A4B83ED009A28EE278A28EE288A52
:100E8000774B83ED008A21EE271A61EE288A754B95
:100E9000C3ED008A90227449D4F80401FFF71AFBCD
:100EA000D4F80431F1EE497AC3ED017AD4F8043173
:100EB000F1EE486AC3ED026AD4F80431B1EE687A03
:100EC00083ED037AD4F8043183ED069AD4F8043123
:100ED000C3ED088AD4F80431C3ED096AD4F80431AB
:100EE00083ED0C8AD4F8043183ED0D7AD4F8043103
:100EF00083ED0F9AD4F80431C3ED128AD4F804318B
:100F000083ED138AD4F80431C3ED147AD4F8482160
:100F1000D4F84C31134305D184ED5EBAC4ED5FAA19
:100F200084ED60AA4C4B93ED5E7AD3ED647A27EEA4
:100F3000277A93ED6F6A77EE866A87EE260A26EEA9
:100F40000BBA8BEE267A30EE070A83ED5E0AD3EDFC
:100F50005F5A67EEA55A85EEA67A66EE2AAACAEE11
:100F6000A65A37EE257A83ED5F7AD3ED605A67EEA5
:100F7000A55AC5EEA67A26EE0A6AC6EE265A77EE7E
:100F8000A57AC3ED607A20EE000A27EE077A30EEEC
:100F9000070A67EEA77A30EE270AFFF735FBB0EEB7
:100FA000408A324B83ED000A00231CE09FED302A7B
:100FB000F7EE001A9FED2F1ADFED2F0AB2EE040AAA
:100FC000FFF7B6FE3AE7244903F15E0201EB820225
:100FD000D2ED007A8A6802EB830268EE277AC2EDCE
:100FE000007A0133DBB2022BEDD91B4C94ED5B0A86
:100FF00020EE000AD4ED5C7A67EEA77A30EE270A7D
:10100000D4ED5D7A67EEA77A30EE270AFFF7FCFA97
:10101000B7EE007AC7EE007AC4ED657AC7EE086ACB
:10102000C4ED666A9FED157AF4EEC77AF1EE10FA18
:101030002AD5DFED137AF4EEE76AF1EE10FA23DD3C
:10104000DFED107AF4EEE76AF1EE10FA1CD501221A
:1010500084F839211CE000BFA0090020940B002077
:10106000980B00209C0B0020C48E0008800B0020F1
:10107000000000008096184B6F12833A9A99993EAF
:10108000CDCC1441CDCC24417E4B002283F83921B4
:101090007C4CD4ED6C7A94ED6F7AD4F8183167EE0D
:1010A000877AC3ED007AD4ED6C7A94ED6F7AD4F838
:1010B000183167EE877AC3ED077AD4ED6C7A94ED38
:1010C0006F7AD4F8183167EE877AC3ED0E7AD4EDD3
:1010D0006C7A94ED6F7AD4F8183167EE877AC3EDA5
:1010E000157AD4ED6D7A94ED6F7AD4F8183167EEF5
:1010F000877AC3ED1C7AD4ED6D7A94ED6F7AD4F8CB
:10110000183167EE877AC3ED237AD4F81C21D4F81E
:10111000B8311360D4F81C211361D4F81C31D4F811
:10112000B8211A62201D01F001FA6368D3ED000AAC
:10113000C4ED540AD3ED017AC4ED557A93ED027AE9
:1011400084ED567A93ED030A84ED570A1A69C4F8C0
:1011500060215B69C4F864310023C4F8683120EE73
:10116000800A27EE877A30EE070A60EEA00A67EE63
:10117000A77A70EEA70A70EEA00AF7EE008A70EE6A
:10118000E80A30EE000A07F0ABFA9FED3F8A20EE46
:10119000080A84ED6A0AD4ED540A94ED550A20EE4B
:1011A000800A94ED567AD4ED577A27EE277A30EEFE
:1011B000070A60EEA00A67EEA77A70EEA70A70EE43
:1011C000A00A70EEE80A30EE000A07F089FA20EE75
:1011D000080A84ED690AD4ED557A94ED570A67EE52
:1011E000807A94ED540A94ED567A20EE070A77EE51
:1011F000C07AB8EE000A27EE800A07F045FA20EE22
:10120000080A84ED680A94ED6A7AD4ED767A77EE6E
:10121000677ADFED1E6AF4EEE67AF1EE10FA23DD6E
:10122000B4F9D431013BA4F8D431164BB3F9D4212D
:1012300007EE902AF8EEE77ADFED156A67EEA67AF8
:1012400077EE277AC3ED6B7A83ED767AD3F848216F
:10125000D3F84C11013241F10001C3F84821C3F821
:101260004C11BDEC088B10BDDFED0A6AF4EEE67A96
:10127000F1EE10FAD9D5034AB2F9D4310133A2F80C
:10128000D431D2E7A0090020E12E654200003443AA
:101290000000B443000034C370B52DED068B86B05A
:1012A00004460D46164690ED040A9F4BD3ED007A96
:1012B00070EE677AF0EEE77A9FED9C7AF4EEC77AEB
:1012C000F1EE10FA22DCD0ED057A994B93ED007A1D
:1012D00077EEC77AF0EEE77A9FED947AF4EEC77A6C
:1012E000F1EE10FA12DCD0ED067A924B93ED007A13
:1012F00077EEC77AF0EEE77A9FED8C7AF4EEC77A54
:10130000F1EE10FA02DC0378002B6ED09FED8AAA72
:1013100080EE0A0A02F0C8F9B0EE409A94ED050A90
:1013200080EE0A0A02F0C0F9F0EE408A94ED060A57
:1013300080EE0A0A02F0B8F9F0EE40AA94ED040A31
:1013400080EE0A0A02F0F4F9B0EE408A94ED050A44
:1013500080EE0A0A02F0ECF9F0EE409A94ED060AEB
:1013600080EE0A0A02F0E4F969EE2A6A28EE297A88
:1013700027EE007A36EE877A704B83ED007A28EEFE
:10138000887A6F4B83ED007A29EE006A6AEE885AFC
:1013900025EEA97A36EE476A6A4B83ED006A29EE9C
:1013A000297A27EE007A37EE657A674B83ED007A6B
:1013B00029EE289A654B83ED009A28EE408A66EE66
:1013C000A96A38EE668A624B83ED008A68EEC07ABD
:1013D000604BC3ED007A604BC3ED009A68EEAA8AB9
:1013E0005E4BC3ED008A00232370002310E005EB61
:1013F0008302D2ED007A04EB830292ED017A67EE6C
:10140000877A06AA02EB830242ED037A0133DBB24C
:10141000022BECD9DDED037A484B93ED006A27EE01
:10142000867A9DED045A464BD3ED002A65EE226A7A
:1014300037EE267ADDED055A424B93ED003A65EE24
:10144000836A37EE267A85ED007A3F4BD3ED006A4A
:1014500027EEA67A3D4BD3ED003A65EE234A37EEF0
:10146000247A3B4B93ED004A65EE844A37EE247AAA
:1014700085ED017A374B93ED007A67EE877A364B2C
:10148000D3ED004A25EE245A77EE857A334B93ED5F
:10149000005A65EE855A77EEA57AC5ED027A0023EB
:1014A00009E006EB8302116806AA02EB830242F808
:1014B000181C0133DBB2022BF3D99DED002A26EE76
:1014C000026ADDED015A62EEA52A36EE226ADDEDF2
:1014D000027A23EE273A36EE036A86ED006A66EE5C
:1014E000826A63EEA53A76EEA36A24EE274A76EE88
:1014F000846AC6ED016A27EE027A64EEA54A37EEE9
:10150000247A25EE275A37EE057A86ED027A22698B
:10151000054B1A606269064B1A60A269054B1A6096
:1015200006B0BDEC068B70BD5C0D00206F12833AD7
:10153000540D0020580D0020E12E6542280D00209A
:101540002C0D0020300D0020340D0020380D00201F
:101550003C0D0020400D0020440D0020480D0020CF
:1015600008B52DED028B204BF7EE001AC3ED011AE2
:10157000C3ED021AC3ED031A9FED1C8A83ED048AA2
:1015800083ED058A83ED068A01221A70B0EE482A9F
:101590009FED171ADFED170AB2EE040AFFF7C8FB3A
:1015A00000221146F0EE484AB0EE484AF0EE483AC2
:1015B000B0EE483AF0EE482AB3EE042ADFED0E1AF8
:1015C000B0EE481ADFED0D0A9FED0D0A0D4801F04F
:1015D000ECFA00210C4804F06DFB0C4B0C4A1A6429
:1015E000BDEC028B08BD00BFCC0B0020000000004A
:1015F0008096184B6F12833A00007A44000096439D
:101600000000FA44700C0020300F0020E80B00208E
:1016100096430B3C92ED026A66EE067AF6EE006A9D
:1016200076EEE77A92ED037A67EE075A77EEE57A7F
:10163000D0ED005A67EEA57AD2ED014A66EE245A43
:1016400092ED005A27EE054A75EEC45A90ED014A14
:1016500065EE845A77EEA57A27EE247A26EE056A9F
:1016600037EE067A90ED026A27EE067A77EE877AF1
:1016700077EEA77AC1ED007AD2ED015AD2ED027A67
:1016800025EEA77AD2ED004A92ED035A24EE856A40
:1016900037EE067A90ED006A27EE067A25EEA56A07
:1016A00036EEC66A25EE054A36EE446A90ED014AEA
:1016B00026EE046A37EE067A67EE857A65EEA45A5E
:1016C00077EEE57A90ED026A67EE867A37EE277A52
:1016D00037EE077A81ED017AD2ED015A92ED037A65
:1016E00065EE877A92ED005A92ED026A65EE064A3F
:1016F00077EEE47AD0ED004A67EEA47A27EE067A18
:1017000025EE855A37EE057A90ED015A27EE057AD7
:1017100077EE877A65EEA55A76EEE56A26EE066ADA
:1017200076EEC66A90ED027A66EE876A77EEA67A62
:1017300077EEA77AC1ED027A704792ED026A66EE03
:10174000067AF6EE006A76EEE77A92ED037A67EEB5
:10175000075A77EEE57AD0ED005A67EEA57AD2ED1A
:10176000014A66EE245A92ED005A27EE054A75EEBC
:10177000845A90ED014A65EE845A77EEA57A27EEF9
:10178000247A26EE056A37EE467A90ED026A27EE55
:10179000067A77EE877A77EEA77AC1ED007AD2EDF6
:1017A000015AD2ED027A25EEA77AD2ED004A92EDE7
:1017B000035A24EE856A37EE467A90ED006A27EEEA
:1017C000067A25EEA56A36EEC66A25EE054A36EE9D
:1017D000446A90ED014A26EE046A37EE067A67EE17
:1017E000857A65EEA45A77EEA57A90ED026A67EEE7
:1017F000867A37EE277A37EE077A81ED017AD2EDD5
:10180000015A92ED037A65EE877A92ED005A92EDD5
:10181000026A65EE064A77EEA47AD0ED004A67EEDA
:10182000A47A27EE067A25EE855A37EE457A90EDB2
:10183000015A27EE057A77EE877A65EEA55A76EE9D
:10184000E56A26EE066A76EEC66A90ED027A66EEE4
:10185000876A77EEA67A77EEA77AC1ED027A7047AB
:1018600010B5114C114BD3ED000A114B93ED070A43
:10187000204601F0C6F994ED0D0A00F0E3FE00EEFB
:10188000100A9FED0C1ADFED0C0AB8EEC00A00F04A
:10189000C9FEBCEEC00A10EE103A9AB20021074809
:1018A00000F004F910BD00BF700C00209000002073
:1018B0007C0F00200000804F00000000300F00204F
:1018C00070B52DED028B86B0002303930493664B15
:1018D0000593664800F050F9654E86ED000A654BA9
:1018E000D3ED007A37EE800A83ED000A624D284678
:1018F00002F004FE2B68614CE3616B682362AB6805
:101900006362EB6823612B6963616B69A36104F116
:101910001C0204F110015A48FFF7BEFCD4ED090A7D
:1019200094ED070A06F0DCFEDFED568A20EE680A29
:101930009FED558AC0EE087AC4ED1A7AD4ED090AF3
:1019400094ED080A06F0CCFE20EE280AC0EE087AD4
:10195000C4ED1B7A96ED003AD4ED092A94ED082ADD
:10196000D4ED071A94ED061AD4ED050A94ED040A95
:10197000FFF74EFA454B0FCB84E80F00224604F1E7
:1019800044014348FFF746FE224604F15001414816
:10199000FFF740FE224604F15C013F48FFF73AFEA4
:1019A0002246694603A8FFF7C8FE002327E0334A12
:1019B000991D02EB810191ED017A06A901EB8301EA
:1019C00051ED067A37EE677A2949D1ED007A27EE94
:1019D000277AD2ED106A77EEA67A87EE276A03F1AE
:1019E0000A0102EB810292ED007A66EE876A86EECA
:1019F000A77A76EE077AC2ED007A0133DBB2022BCA
:101A0000D5D91E4C224604F1340104F12800FFF719
:101A100001FE224BD3F8A821A267D3F8A421626764
:101A2000D3F8A0212267D3ED6B7AC4ED1F7AF1EED3
:101A3000677A1B4BC3ED007AD4ED067AF1EE677A34
:101A4000184BC3ED007A184B1B6813F0010F07D039
:101A5000154A13680133136006B0BDEC028B70BDEC
:101A6000FFF7FEFEF4E700BFC3F51C41680C002041
:101A7000500D0020600D00207C0F0020E80B00209E
:101A8000CC0B002000003443DB0F4940F00A00205B
:101A9000548F0008608F00086C8F0008A009002098
:101AA000C80B0020C40B00204C0D00200368D86A2E
:101AB000824201D9DA6A92B20C290FD8DFE801F02C
:101AC000070E0E0E090E0E0E0B0E0E0E0D005A63B3
:101AD00070479A637047DA6370471A647047000072
:101AE00082B0084B5B680193019A074B1B689A42CE
:101AF00003D2064A136801331360019A024B1A603D
:101B000002B07047001000E0980D00209C0D0020EE
:101B1000104AD2F8FC3043F08073C2F8FC300E4B10
:101B2000002159601A6842F001021A600B4B03FB56
:101B300000F00B4B18600B4BA3FB00239B090A4AD8
:101B400013600A4BA3FB0030800C094B1860094B53
:101B50001960704700ED00E0001000E040420F0007
:101B6000800D0020D34D6210840D002083DE1B43C6
:101B7000880D00209C0D002000B52DED028B83B058
:101B80000D4B5B680193019B02689B1A07EE903A2C
:101B9000F8EE677A094B93ED007AB8EE477A87EE54
:101BA000878A019B0360FFF79BFFB0EE480A03B0F2
:101BB000BDEC028B5DF804FB001000E0800D0020FE
:101BC0002DE9F04182B0274B5B680193FFF788FF56
:101BD000254B1C6800266508E3071B1B65F1000503
:101BE000DB186D411C1945F10005019BE41845F116
:101BF00000071E4B1C605F601D4B1D682A46334664
:101C000020463946FEF7E4FA1A4A10605160A5FBF7
:101C1000003205FB0125E41A67EB0505164B1C6035
:101C20005D60DFF86480C8F80000144B1F683A4616
:101C3000334620462946FEF7CBFA80B2A8F80400C6
:101C400007FB00F0201A65F100010D4B1860596088
:101C50000C4B1A683346FEF7BBFAA8F8060002B030
:101C6000BDE8F081001000E09C0D0020900D0020E8
:101C7000800D0020680D0020700D0020840D0020D4
:101C8000780D0020880D0020A00D002008B5FFF77A
:101C900097FF0E4B9A8800EE102AB8EEC00ADFEDCF
:101CA0000C7A60EE277A93ED007AB8EE470A30EEB0
:101CB000270ADB8807EE903AF8EEE77A9FED057A7F
:101CC00067EE877A30EE270A08BD00BFA00D00201E
:101CD0006F12833ABD3786350A4B5A68094B5B68E9
:101CE0009B1A07EE903AB8EE677A074BD3ED007A6D
:101CF000F8EE677A67EE807AB4EEE77AF1EE10FAE2
:101D0000ECD47047001000E0800D002070B5044650
:101D100000250574827B424E338803FB02F2416842
:101D2000D0F8F400FEF7D6FBA27B338803FB02F267
:101D30002946606806F0DAF9A27B338802FB03F3D8
:101D400003FB02F22946D4F8180106F0CFF9227BF2
:101D5000338802FB03F3A27B03FB02F22946D4F88B
:101D60000C0106F0C3F9294601E00131C9B2A37B99
:101D70008B422AD9D4F8F4304FEA810C03EB81026C
:101D8000D2ED007AF5EE407AF1EE10FAEDD0227C39
:101D900003EB8203C3ED007A626A237CD154A0690D
:101DA000D4F80C2194F80CE0257C63695B5C05FB9E
:101DB0000E3303F18043013B02EB8303604402686E
:101DC0001A60237C01332374CFE700230FE0E0691E
:101DD000616A11F803C0D4F8181102FB033201EB59
:101DE000820200EB8C00016811600133DBB2227CBF
:101DF0009A42ECD892B2A4F87820237BA4F87A30E7
:101E0000A4F88030A4F88220A4F89020A4F89220AE
:101E1000A4F89830A4F89A20A4F8482070BD00BF18
:101E2000AA0D00202DE9F04704460D4691461E46B6
:101E3000DFF8B8830423A8F80030EB4B08221A809F
:101E4000017380F80D90867300270774304605F003
:101E500095FE60613246394606F048F9B8F800A0B0
:101E600006FB0AFA504605F089FEA0615246394643
:101E700006F03CF9B8F800A006FB0AFA504605F057
:101E80007DFEE0615246394606F030F9B8F800A010
:101E900005FB0AFA504605F071FE206252463946AB
:101EA00006F024F9304605F069FE60623246394694
:101EB00006F01CF9B8F8000005FB00F005F05EFE26
:101EC0002060B8F8002005FB02F2394606F00EF952
:101ED000B8F800A006FB0AFA504605F04FFE606015
:101EE0005246394606F002F9B8F800A009FB0AFA92
:101EF000504605F043FEA0605246394606F0F6F81B
:101F0000B8F800A005FB0AFA504605F037FEC4F801
:101F1000E8005246394606F0E9F8D4F8E8300122E4
:101F2000217B04F1300001F0A1FCB8F8008005FB32
:101F300008F8404605F022FEC4F8EC004246394657
:101F400006F0D4F8D4F8EC300122217B04F13800FB
:101F500001F08CFCB9F1000F40F04A81DFF88C826F
:101F6000B8F8007006FB07F7384605F007FEC4F81E
:101F7000F4003A46002106F0B9F8D4F8F430012212
:101F8000A17B04F1480001F071FCB8F8007005FB7A
:101F900007F705FB07F7384605F0F0FDC4F8F80031
:101FA0003A46002106F0A2F8217BD4F8F8300A4620
:101FB00004F1500001F05AFCB8F8007005FB07F777
:101FC00005FB07F7384605F0D9FDC4F8FC003A4692
:101FD000002106F08BF8217BD4F8FC300A4604F18E
:101FE000580001F043FCB8F8007005FB07F705FB4B
:101FF00007F7384605F0C2FD8246C4F800013846AE
:1020000005F0BCFDC4F804013A460021504606F034
:102010006DF8B8F8002005FB02F205FB02F2002182
:10202000D4F8040106F062F8217BD4F800310A46A6
:1020300004F1600001F01AFC217BD4F804310A4657
:1020400004F1680001F012FCB9F1000F40F0E680E5
:10205000664FB7F800A00AFB06F909FB05F94846E8
:1020600005F08CFD8046C4F80C010AFB05F006FB68
:1020700000F005F083FDC4F810014A4600214046F7
:1020800006F034F83A8805FB02F206FB02F2002162
:10209000D4F8100106F02AF8D4F80C31227BA17B89
:1020A00004F1780001F0E2FBD4F81031A27B217B2F
:1020B00004F1800001F0DAFBB7F8008005FB08F8B6
:1020C00008FB05F8404605F059FDC4F814014246E6
:1020D000002106F00BF8217BD4F814310A4604F1F4
:1020E000880001F0C3FBB7F8008006FB08F808FB86
:1020F00006F8404605F042FDC4F8180142460021AA
:1021000005F0F4FFA17BD4F818310A4604F19000E1
:1021100001F0ACFB398801FB05F505FB06F63046FE
:1021200005F02CFDC4F81C013246002105F0DEFF4D
:10213000D4F81C31A27B217B04F1980001F096FBBE
:10214000267B3F8806FB07F707FB06F5284605F0C8
:1021500015FD8046C4F82001284605F00FFDC4F89F
:102160002401284605F00AFDC4F82801384605F088
:1021700005FDC4F82C01384605F000FDC4F8300117
:10218000B1B243460A4604F1A00001F06FFB217B87
:10219000D4F824310A4604F1A80001F067FB217B42
:1021A000D4F828310A4604F1B00001F05FFBD4F8FE
:1021B0002C310122217B04F1B80001F057FBD4F847
:1021C00030310122217B04F1C00001F04FFB0023DC
:1021D00084F8283084F8293084F82A3084F82B30A9
:1021E00084F82C30BDE8F087A80D0020AA0D00204F
:1021F000164B1F8809FB07F7384605F0BFFCC4F8EB
:10220000F0003A46002105F071FFD4F8F0300122C9
:10221000617B04F1400001F029FB9FE6B8F8002043
:1022200005FB02F202FB09F9484605F0A7FCC4F8D9
:1022300008014A46002105F059FFD4F80831627BB5
:10224000217B04F1700001F011FB01E7AA0D0020D1
:1022500038B50446C37B63B1FFF758FD627B0E4B74
:102260001B8803FB02F2A168D4F8F000FEF732F9F4
:1022700038BD827B084D2B8803FB02F24168D0F801
:10228000F400FEF727F9A27B2B8803FB02F2002162
:10229000606805F02BFFE1E7AA0D002090F82830D8
:1022A000B3BB70B50446437B43B3037BA0F8B8309F
:1022B0000126A0F8BA6000F1B8052A4600F1300105
:1022C000603001F0E5FB84F8C800237BA4F8C0303F
:1022D000A4F8C26004F1C006324604F1400104F1E2
:1022E000700001F0D5FB84F8C80004F138023146D3
:1022F000284601F06DFA84F8C80070BD00F138027C
:1023000000F13001603001F0C3FB84F8C800F4E74D
:102310007047F8B590F8293003B1F8BD044600F1D4
:10232000600600F168073946304601F085FC84F804
:10233000C80004F158052A4604F15001304601F066
:10234000A7FB84F8C800B4F85830A4F8A830B4F853
:102350006A30A4F8AA3004F1A80632463946284665
:1023600001F096FB84F8C8002A4604F18801304643
:1023700001F02EFA84F8C800CFE72DE9F84390F871
:102380002A300BB1BDE8F883044600F1780600F16D
:1023900080073946304601F04FFC84F8C800B4F895
:1023A0007830A4F8A830B4F85A30A4F8AA3004F170
:1023B000580804F1A8052A464146304601F068FB5A
:1023C00084F8C800B4F8A830A4F8B030B4F882306B
:1023D000A4F8B23004F1B00632463946284601F07E
:1023E00057FB84F8C800B4F89030A4F8A030B4F8D3
:1023F0009230A4F8A23004F1A0094A4604F19001F9
:10240000304601F0E5F984F8C8003146484601F04D
:1024100031FA84F8C800B4F85830A4F8A830B4F8F9
:102420008230A4F8AA302A463946404601F030FBF3
:1024300084F8C80004F198023146284601F028FBD0
:1024400084F8C8009EE790F82B3003B170472DE95F
:10245000F0410446B0F87830A0F8B8300126A0F872
:10246000BA6000F1380700F1B8052A4639467830DD
:1024700001F00EFB84F8C800B4F84830A4F8C0306E
:10248000A4F8C26004F1C0084246294604F148009D
:1024900001F084FB84F8C800B4F89830A4F8B83090
:1024A000A4F8BA602A46414604F1980001F0F0FA17
:1024B00084F8C80004F130022946384601F088F952
:1024C00084F8C800BDE8F081F8B590F82C3003B16D
:1024D000F8BD0446B0F89830A0F8A830B0F87A20DB
:1024E000A0F8AA20A0F8B030B0F85A30A0F8B23066
:1024F00000F1A8073A4600F17801983001F0C8FAD7
:1025000084F8C80004F1580504F1B00632462946A3
:10251000384601F0BDFA84F8C80004F15002314693
:10252000284601F03BFB84F8C800D1E738B50446E3
:10253000FFF78EFED4F8CC300BB1204698472046EA
:10254000FFF7ACFED4F8D0300BB1204698472046B8
:10255000FFF7DFFED4F8D4300BB120469847237C38
:102560000BB9E37BCBB92046FFF707FFD4F8D8308F
:102570000BB1204698472046FFF765FFD4F8DC30C2
:102580000BB1204698472046FFF79EFFD4F8E03075
:102590000BB120469847002319E0227B204D2B8861
:1025A00003FB02F2D4F8EC10D4F8E800FDF792FF38
:1025B000227B2B8802FB03F303FB02F2D4F8FC100E
:1025C000D4F8F800FDF786FFE0E70133DBB2227BA9
:1025D0009A4214D9D4F8F81002FB033201EB8202BC
:1025E00092ED007A216A01EB8301D1ED007AB4EE1D
:1025F000E77AF1EE10FAE8D5C2ED007AE5E7084B8C
:102600001B8803FB02F2D4F8E8102068FDF762FF94
:10261000D4F8E4300BB120469847206838BD00BF9D
:10262000AA0D0020B4EEE00AF1EE10FA07D4B4EEE1
:10263000C10AF1EE10FA04DDB0EE410A7047B0EEC7
:10264000600A7047FDEEC07A0C4BC3ED007AB8EE1D
:10265000E77A30EE470A0A4B83ED000AB6EE007ABD
:10266000B4EEC70AF1EE10FA04DD17EE903A01332A
:10267000024A1360014B1868704700BFB00D00207C
:10268000AC0D0020F8B504460180002646608D00A0
:10269000284605F073FA0746A060284605F06EFA52
:1026A000E0600023236163612A463146384605F025
:1026B0001DFD2A463146E06805F018FDE6612662F8
:1026C0006662A662F8BD0000836893ED017A5D4BF7
:1026D00083ED007A002313E08268591C02EB810C21
:1026E000DCED007A02EB830277EEC77AC2ED007A66
:1026F000C26802EB830302EB810212681A608BB29C
:102700000288511E8B42E7DB816802F18043023B65
:1027100001EB8303D3ED007A6FF0404C624401EB90
:10272000820237EE800A82ED000AC36802886244A2
:1027300003EB8203C3ED000A4368B0F800C06345B1
:1027400001D2013343600023C361036243628362A9
:102750008388ACEB03039BB21A462DE0816801EB42
:102760008201D1ED007A67EEA77A90ED077A77EED5
:10277000277AC0ED077A91ED007AD0ED087A77EEEE
:10278000877AC0ED087AD1ED007AC16801EB820149
:1027900091ED007A27EE877AD0ED097A77EE877A85
:1027A000C0ED097A91ED007AD0ED0A7A77EE877A5A
:1027B000C0ED0A7A013292B29445CFD890ED097AF1
:1027C00007EE90CAB8EEE76A27EE067AD0ED086AFF
:1027D000D0ED0A7A66EEA77A37EE677AD0ED077AFF
:1027E00066EE277A66EEA66A77EEE67A87EE270A25
:1027F00080ED040A002282611BE0826802EB830202
:10280000D2ED007A60EE277A90ED057A77EE877A3E
:10281000C26802EB830292ED007A77EEC77AF0EE9F
:10282000E77A90ED067A77EE277AC0ED067A0133E3
:102830009BB29C45E1D890ED067AC7EE067AC0EDD2
:10284000067A7047B40D0020D0F89830C3B1D0EDAF
:10285000027A93ED017A77EE877A90ED067AD0EDE1
:10286000076A37EE267AF6EE006A27EE267A67EEDA
:10287000877A90ED257A67EE877AC0ED0C7A7047FB
:10288000D0ED027A90ED067AD0ED076A37EE267A1F
:10289000F6EE006A27EE267A67EE877A90ED257AC3
:1028A00067EE877AC0ED0C7A7047D0ED067A90ED2E
:1028B0000A7A27EE877AB5EEC07AF1EE10FA26DDB5
:1028C000F5EEC07AF1EE10FA1CDD90ED157AB4EE5B
:1028D000E77AF1EE10FA1ADAD0ED146A37EE266ACA
:1028E000B4EEE76AF1EE10FA0FDB76EEE77A77EEF8
:1028F000277A87EEA67AD0ED0C7A67EE877AC0ED5C
:102900000C7A7047F1EE677ADFE7002303637047C4
:10291000D0ED0A6A90ED0C7A36EE877A1F4B83ED84
:10292000007AD0ED097A76EEA77A90ED0B6A77EE11
:10293000867A1B4BC3ED007AF5EEC07AF1EE10FA01
:1029400028DD90ED106AB4EEE76AF1EE10FA0AD5D0
:10295000D0ED067A66EEA76AF5EEC06AF1EE10FADF
:1029600001DD00230363D0ED117AB4EEE77AF1EED6
:1029700010FA03DD00230363C0ED0A7AF1EE677AF3
:10298000B4EEE77AF1EE10FA03D500230363C0ED4D
:102990000A7A7047F1EE677AD3E700BFB80D0020DE
:1029A000BC0D002090ED0B6AD0ED257A26EE276A4B
:1029B00090ED177A77EE877AC6EE276A90ED0F6A68
:1029C00027EE067A87EE276A76EE867AC0ED0B7AD6
:1029D000704790ED0D6AD0ED257A26EE276A90EDCE
:1029E000167A77EE877AC6EE276A90ED0E6A27EEA2
:1029F000067A87EE276A76EE867AC0ED0D7A704702
:102A000090ED0D7AD0ED107AB4EEE77AF1EE10FA8F
:102A100001DDC0ED0D7A90ED0D7AF1EE677AB4EE3E
:102A2000E77AF1EE10FA01D5C0ED0D7A704790ED1E
:102A3000097AD0ED107AB4EEE77AF1EE10FA01DD02
:102A4000C0ED097A90ED097AF1EE677AB4EEE77A93
:102A5000F1EE10FA01D5C0ED097A704790ED0D7ACC
:102A6000D0ED107ADFED206A67EEA67AB4EEE77A51
:102A7000F1EE10FA31D4D0ED007AB0EEE77ADFED66
:102A80001B6AB4EEE67AF1EE10FA26D4D0ED046AB1
:102A900077EEE67AF0EEE77AC7EE876ADFED147A32
:102AA000F4EEE76AF1EE10FA18DDD0F8A030D0F8B5
:102AB000A420013342F10002C0F8A030C0F8A420E5
:102AC000D0F8A010D0F8A43040F2F512914273F182
:102AD000000302D3012380F8A830704700220023AE
:102AE000C0E92823ECE700BF6F12833A17B7D1384B
:102AF0003333733F10B52DED028B0446D0F8983078
:102B0000D3B1B0F86020022A3BD8D0ED037A93ED20
:102B1000027A77EE877A90ED057AD0ED046A37EE87
:102B2000667A67EE877AD0ED256A87EEA67A80ED21
:102B30000B7ABDEC028B10BDB0F86030022B10D8C0
:102B4000D0ED037A90ED057AD0ED046A37EE667A1F
:102B500067EE877AD0ED256A87EEA67A80ED0B7A4C
:102B6000E7E790ED038AD0ED040AF1EE600A90EDFC
:102B7000250A6430FFF7A8FD28EE008A84ED0B8A51
:102B8000D7E790ED038AD3ED027A38EE278AD0EDAD
:102B9000040AF1EE600A90ED250A6430FFF794FD17
:102BA00028EE008A84ED0B8AC3E770B5044616460A
:102BB00080ED121AC0ED110A80ED100A00250560A3
:102BC000C0ED011A80ED022AC0ED032A056380EDF5
:102BD000143AC0ED153A80ED164AC0ED174AA0F838
:102BE00060106430FFF74EFD0023C4F8903084F885
:102BF0009C6000200021C4E9280184F8A8306563A6
:102C000070BD10B52DED028B0446F0EE408AB0EE9B
:102C1000608A90F99C30002BC0F2A08004F19000F3
:102C2000FEF7AAFF84ED250AC4ED048A84ED008A2C
:102C300038EE688A84ED068AD4F8B0300BB12046AD
:102C40009847D4ED060AF5EEC00AF1EE10FA40F30B
:102C50008880F0EE607A94ED127AB4EEE77AF1EEC5
:102C600010FA6CD5D4F89830002B7DD0D4ED017AD1
:102C700093ED007A77EE877A60EEA77AC4ED097A51
:102C8000D4ED027A93ED017A77EE877A60EEA77A37
:102C900094ED250A67EE807AC4ED0C7AB4F86020D2
:102CA000022A00F28D80D4ED037A93ED027A77EE5A
:102CB000877A94ED077A70EEC70A67EEA00AC0EE35
:102CC000807AC4ED0B7AD4F8B4300BB12046984723
:102CD00094F89C3013F0040F40F0818094F89C30FD
:102CE00013F0200F7FD194F89C3013F0020F7ED1A7
:102CF00094F89C3013F0400F7DD194F89C3013F081
:102D0000010F7CD1D4ED0C7A94ED0A7A77EE877AB4
:102D1000C4ED0A7A94ED097A77EE877A94ED0B7A0E
:102D200077EE877AC4ED0D7A94F89C3013F0100F8B
:102D300069D12046FFF764FE2046FFF778FE23693D
:102D4000636194ED0D0A84ED0E0AE36AE363A369FF
:102D5000E361236B2362BDEC028B10BDFFF77EFEA7
:102D60005CE7F1EE607A76E7D4ED017A60EEA77A5F
:102D7000C4ED097AD4ED027A60EEA77A94ED250AC3
:102D800067EE807AC4ED0C7AB4F86030022B0CD870
:102D9000D4ED037A94ED077A70EEC70A67EEA00AC5
:102DA000C0EE807AC4ED0B7A8DE794ED038A04F1CE
:102DB0006400FFF789FC28EE008A84ED0B8A82E725
:102DC00094ED038AD3ED027A38EE278A04F1640089
:102DD000FFF77AFC28EE008A84ED0B8A73E7204621
:102DE000FFF732FD7AE72046FFF75FFD7BE72046DD
:102DF000FFF780FE7CE72046FFF7D4FD7DE7204605
:102E0000FFF786FD7EE72046FFF7E3FD91E7000030
:102E100010B582B0002401940D4B1A6B42F480026D
:102E20001A631B6B03F480030193019B2246214626
:102E30003A2001F0ADFC3A2001F0E2FC22460521E7
:102E40003B2001F0A5FC3B2001F0DAFC02B010BDF4
:102E50000038024008B50B4A00210B4802F0E8FF99
:102E60000A4B18600A4A00210A4802F0E1FF0A4BA7
:102E700018600A4A00210A4802F0DAFF094B18607C
:102E800008BD00BFE08F0008F57A0008C80D0020DB
:102E9000BC8F00080D7B0008C40D0020988F00082F
:102EA000E77A0008C00D00202DE9F04F8FB0002414
:102EB00009940A940B940C940D940194994B1A6BF9
:102EC00042F002021A631A6B02F002020192019AA6
:102ED00002941A6B42F040021A631A6B02F040022D
:102EE0000292029A03941A6B42F001021A631A6B5F
:102EF00002F001020392039A04941A6B42F0080252
:102F00001A631A6B02F008020492049A05941A6B71
:102F100042F004021A631A6B02F004020592059A49
:102F200006941A6B42F480721A631A6B02F4807270
:102F30000692069A07941A6B42F080021A631A6B83
:102F400002F080020792079A08941A6B42F020025E
:102F50001A631B6B03F020030893089B22464FF46F
:102F60008071714801F01CFEDFF8D0A101224021E0
:102F7000504601F015FE22464FF4E0516B4801F037
:102F80000FFEDFF8BC9101221021484601F008FE37
:102F9000674F012241F20101384601F001FE602332
:102FA000099302260A960B9403250C954FF0090805
:102FB000CDF8348009A9384601F000FD4FF4844370
:102FC00009930A960B940C9508230D9309A9504672
:102FD00001F0F4FC802309930A960B940C954FF0B2
:102FE000070BCDF834B009A9384601F0E7FC099584
:102FF0000A960B940C95CDF8348009A94D4801F040
:10300000DDFC4FF4406309930A960B940C95CDF8C0
:1030100034B009A9444801F0D1FCC02309934FF40E
:1030200088130A930B9409A9434801F0C7FC4FF495
:10303000007309930A960B940C95CDF834B009A946
:10304000484601F0BBFC4FF48073099301250A95B3
:103050000B940C9409A9344801F0B0FC4023099367
:103060000A950B950C9509A9504601F0A7FC4FF461
:10307000E05309930A950B940C9409A92B4801F08D
:103080009DFC082309934FF4041BCDF828B00B9541
:1030900009A9504601F092FC09950A940B9509A9DB
:1030A000484601F08BFC102309930A950B950C966A
:1030B00009A9484601F082FC30230993CDF828B0D5
:1030C0000B9509A9184801F079FC4FF48053099336
:1030D0000A950B950C9509A9384601F06FFC0995E6
:1030E0000A950B950C9609A9384601F067FC224613
:1030F0000521404601F04CFB404601F081FB224691
:1031000005210A2001F044FB0A2001F079FB224648
:103110000521172001F03CFB172001F071FB0FB0D7
:10312000BDE8F08F0038024000080240001C024059
:1031300000040240000C024000200240001802403F
:103140000000024008B50268034B9A4200D008BD57
:1031500001F0E6FAFBE700BF0014004072B6FEE79C
:1031600000B595B03022002108A804F0BFFF00236D
:10317000039304930593069307930193204A116CDC
:1031800041F080511164126C02F080520192019A58
:1031900002931C4B1A6842F480421A601B6803F4C5
:1031A00080430293029B012308934FF480330993D9
:1031B00002230E934FF480020F9206221092A8224F
:1031C000119212930423139308A801F007FD98B9F4
:1031D0000F23039302230493002305934FF4A0537A
:1031E00006934FF480530793052103A801F044FF91
:1031F00020B915B05DF804FBFFF7B0FFFFF7AEFF95
:10320000003802400070004008B501F06FFAFFF787
:10321000A7FFFFF749FEFFF7FBFD00F017F800F0EE
:10322000DFF9A820FEF774FC0121074801F030F90E
:103230000028F9D1FEF794F902F0CCFDFFF70AFE61
:1032400002F0DAFDFEE700BF8C0E002008B50F4843
:103250000F4B03604FF48273436000238360C360AD
:1032600002220261012242614FF400728261102247
:10327000C2610362436283620A23C36202F08AF876
:1032800000B908BDFFF76AFFFBE700BF8C0E002006
:10329000003001402DE9F04389B0002303930493EB
:1032A00005930693079302683F4B9A4202D009B0F8
:1032B000BDE8F08304460025009503F584335A6C7D
:1032C00042F480525A645A6C02F480520092009A7E
:1032D00001951A6B42F002021A631A6B02F00202A5
:1032E0000192019A02951A6B42F001021A631B6B5C
:1032F00003F001030293029B182303934FF002098A
:10330000CDF810904FF00108CDF8148003270697F0
:103310000526079603A9254801F050FB8023039357
:10332000CDF81090CDF814800697079603A9204891
:1033300001F044FB1F48204B03604FF0C063436023
:103340008560C5604FF48063036145618561C56137
:103350004FF440330362456201F0CAFAE8B9154BF5
:10336000E3649C631548164B03604FF0C0634360F1
:10337000402383600023C3604FF480620261436195
:103380008361C3614FF400320262436201F0B0FA1C
:1033900030B90A4BA3649C6389E7FFF7DFFEDEE7E1
:1033A000FFF7DCFEF5E700BF0030014000040240FB
:1033B00000000240CC0D0020406402402C0E002092
:1033C0005864024000B583B0002200920D4B596C46
:1033D00041F480415964596C01F480410091009995
:1033E0000192196C41F0805119641B6C03F08053F9
:1033F0000193019B0F216FF0010001F0C9F903B0A7
:103400005DF804FB0038024030B589B00446002363
:103410000193214B1A6C42F020021A641B6C03F0DA
:1034200020030193019B02A903A801F0EBFE069B78
:10343000CBB901F0D7FE03461848A0FB03239B0C31
:10344000013B1748174A026040F2E732C26043600E
:10345000002303618360836102F01EFB054630B1E7
:10346000284609B030BD01F0BDFE4300E4E70C483A
:1034700002F0AEF905460028F2D1372001F0C0F97C
:103480000F2C01D90125EBE700222146372001F05E
:103490007FF9054B1C60E3E70038024083DE1B43E5
:1034A000E40E002000140040A4000020FEE7FEE728
:1034B000FEE7FEE7FEE7704708B5082001F080FB55
:1034C00008BD08B5102001F07BFB08BD08B5202021
:1034D00001F076FB402001F073FB802001F070FBCF
:1034E00008BD000008B5024802F0BBF908BD00BFE6
:1034F000E40E002010B503460C4A0D490D48006843
:1035000040B10C4800680344521A934206D8094A55
:10351000136010BD0748084C0460F2E704F004FB98
:103520000C2303604FF0FF30F3E700BF00000220E0
:10353000000400002C0F0020D0610020034AD2F8C4
:10354000883043F47003C2F88830704700ED00E023
:103550000268094B9A4200D0704782B00023019361
:10356000064B5A6C42F400325A645B6C03F400332D
:103570000193019B02B070470044014000380240B3
:1035800000B587B00023019302930393049305933E
:103590000268104B9A4202D007B05DF804FB00238A
:1035A00000930D4B1A6B42F020021A631B6B03F061
:1035B00020030093009B40230193022302930122E6
:1035C000039204930323059301A9044801F0F6F93B
:1035D000E2E700BF0044014000380240001402400E
:1035E00000B589B0002301930293039304930593DC
:1035F000069307931548164A02605322426083607F
:1036000040F2CF72C2600361836102F045FAA0B953
:103610000E4802F06DFA98B96023019300220292DD
:103620000392059201A9094802F0C6FA58B9074861
:10363000FFF7A6FF09B05DF804FBFFF78FFDE7E792
:10364000FFF78CFDE8E7FFF789FDF0E7300F00207A
:1036500000440140DFF834D0FFF770FF0C480D49FB
:103660000D4A002302E0D458C4500433C4188C42DD
:10367000F9D30A4A0A4C002301E013600432A24243
:10368000FBD304F057FAFFF7BFFD7047000002209C
:1036900000000020EC080020B8980008F008002086
:1036A000CC610020FEE70000DFED1E7A20EE270A45
:1036B000F5EE007A30EE270AFDEEC07AB5EEC00ACC
:1036C000F1EE10FA28D4F8EEE77A70EE677A9FED03
:1036D000160A67EE807ABCEEE77A17EE103AC3F36B
:1036E000080307EE103AB8EE470A77EEC07A0F4AA1
:1036F00002EB8301D1ED006A013302EB830393ED0A
:10370000007AB7EE000A30EE670A20EE260A67EE6E
:10371000877A30EE270A704717EE903A013B07EEA2
:10372000903AD0E783F9223E000000441C90000844
:10373000B5EEC00AF1EE10FA33D4DFED217A60EE77
:10374000277ABDEEE77AB5EEC00AF1EE10FA30D472
:10375000B8EEC77A77EEC77A9FED1A0A67EE807ADD
:10376000BCEEE77A17EE103AC3F3080307EE103AFF
:10377000B8EE470A77EEC07A134A02EB8301D1ED27
:10378000006A013302EB830393ED007AB7EE000A7F
:1037900030EE670A20EE260A67EE877A30EE270AB7
:1037A0007047DFED0A7AB4EEE70AF1EE10FAC4DBF7
:1037B000F6E717EE103A013B07EE103AC8E700BFF4
:1037C00083F9223E000000441C900008CD024CB456
:1037D00070B443684C685568066809688E423FD1EA
:1037E000126896423FD10288418801FB02F291089B
:1037F00023E0D3ED006A94ED007AD3ED017A76EE02
:10380000876A94ED016A93ED027A77EE867A94EDF9
:10381000026AC5ED006AC5ED017AD3ED037AD4EDF5
:10382000036A37EE067A77EEA67A85ED027AC5ED61
:10383000037A10331034103501390029D9D102F040
:10384000030208E0F3EC017AB4EC017A77EE877AB0
:10385000E5EC017A013A002AF4D1002070BC7047EF
:103860006FF00200FAE76FF00200F7E70180428094
:10387000436070472DE9F04F83B002460190D0F8C5
:1038800004B048680090B2F800E0B2F802C0E64523
:1038900040F0E6800B884A88934240F0E4809E45E1
:1038A00040F0E4807546034612E0002143F8041B13
:1038B000013A002AF9D14FF07E5243F8042B013D22
:1038C0002A4603E0002143F8041B013A002AF9D1FB
:1038D00015B1AEEB0502ECE7E146DFED6C6A93E073
:1038E000F1EE677AF4EEC77AF1EE10FA13DC02EB30
:1038F0008C020133734511D2D2ED007AF5EEC07A15
:10390000F1EE10FAECDDF4EEC77AF1EE10FAEEDD2E
:10391000B0EE677AEBE7B0EE677AE8E7B5EE407AAB
:10392000F1EE10FA00F0A580F5EEC06AF1EE10FAA3
:1039300013DDF0EE667AB4EE677AF1EE10FA0FD18D
:10394000F5EE406AF1EE10FA00F09880D8ED006ACA
:10395000ACEB05063246434611E0F1EE667AEAE743
:10396000AEEB0503013B00E0013B002BFCD1E7E798
:1039700093ED007AC7EE267AE3EC017A013A002A49
:10398000F6D16046534606E093ED007AC7EE267AFC
:10399000E3EC017A01380028F6D17446009A5B46C0
:1039A00025E003EB860302EB8C021CE0D3ED007AEA
:1039B000B1EC017A27EE267A77EEC77AE3EC017A4A
:1039C000013F002FF2D1674651460AE0D2ED007A5E
:1039D000B1EC017A27EE267A77EEC77AE2EC017A2B
:1039E000013F002FF2D103EB8503013C013034B1DC
:1039F000A842D6D0D3ED006A37464146E1E70BF145
:103A0000040B09F1FF390135B9F1000F0DD00CFBA2
:103A100005FA0BEB8A08009B03EB8A0AD8ED006AD3
:103A20002B4642469FED197A64E7F5EE406AF1EEC7
:103A300010FA26D1019B596801E009F101090CFB3C
:103A40000EF34B4508D901EB8902D2ED007AF5EE71
:103A5000407AF1EE10FAF0D04B4514D000200AE085
:103A60006FF0020007E06FF0020004E06FF0020068
:103A700001E06FF0040003B0BDE8F08F6FF00400C8
:103A8000F9E70020F7E76FF00400F4E7000000001A
:103A90002DE9F047044613464568D2F8049007889C
:103AA0004888B4F802E00A8872456BD10E461A883D
:103AB000BA426AD15B8883426AD14FF0000857E06E
:103AC000D3ED006A03EB800392ED006A92ED017A78
:103AD00066EE866A76EEA77AD3ED006A03EB800382
:103AE00027EE267A77EE276A93ED007A03EB8003C0
:103AF00092ED026AD2ED037A27EE067A37EE267A45
:103B0000D3ED006A03EB800367EEA67A77EE877A3F
:103B10001032013989B20029D2D10EF003010BE035
:103B2000B2EC017AD3ED006A27EE267A77EE877A37
:103B300003EB8003013989B20029F1D1EAEC017A63
:103B40000CF1010C1FFA8CFC736803EB8C03013C35
:103B5000A4B22CB14FEA9E012A46DFED0F7ADAE7D4
:103B600080441FFA88F805EB8E05013FBFB237B1DC
:103B700009EB880A736804464FF0000CEAE700205E
:103B8000BDE8F0876FF00200FAE76FF00200F7E798
:103B90006FF00200F4E700BF0000000070B443685B
:103BA0004C685568066809688E423FD11268964293
:103BB0003FD10288418801FB02F2910823E0D3ED56
:103BC000006A94ED007AD3ED017A76EEC76A94ED3F
:103BD000016A93ED027A77EEC67A94ED026AC5ED3A
:103BE000006AC5ED017AD3ED037AD4ED036A37EEAE
:103BF000467A77EEE67A85ED027AC5ED037A1033E0
:103C00001034103501390029D9D102F0030208E03F
:103C1000F3EC017AB4EC017A77EEC77AE5EC017A3D
:103C2000013A002AF4D1002070BC70476FF0020006
:103C3000FAE76FF00200F7E730B542684D68B0F878
:103C400000C0B0F802E04B8863453BD10B88734558
:103C50003BD1644600202EE0D2ED007AC3ED007A1D
:103C600003EB8C03D2ED017AC3ED007A03EB8C03F6
:103C7000D2ED027AC3ED007A03EB8C03D2ED037A26
:103C8000C3ED007A03EB8C03013989B210320029AD
:103C9000E2D10EF0030107E0F2EC017AC3ED007A05
:103CA00003EB8C03013989B20029F5D1013080B2D0
:103CB000013CA4B224B14FEA9E0105EB8003E6E784
:103CC000002030BD6FF00200FBE76FF00200F8E764
:103CD00008B500221021024800F062FF08BD00BFB5
:103CE0000000024008B501221021024800F058FFF0
:103CF00008BD00BF0000024008B5002201210248B3
:103D000000F04EFF08BD00BF0004024008B50122CC
:103D10001146024800F044FF08BD00BF0004024005
:103D200000B587B08DF80F004FF47A73009301232C
:103D30000DF117020DF10F010448006801F089FB35
:103D40009DF8170007B05DF804FB00BF780F002056
:103D500038B50D46144640F08000FFF7E1FF06E05D
:103D60005520FFF7DDFF05F8010B013CE4B2002C04
:103D7000F6D138BD10B50C46FFF7D2FF2046FFF74D
:103D8000CFFF10BD10B50C4640F08000FFF7C8FF14
:103D90005520FFF7C5FF207010BD000030B52DED98
:103DA000048B89B00446C54B93E803000690ADF838
:103DB0001C10090C8DF81E1000238DF81F30FDF724
:103DC00065FFBF4B83ED000AFDF760FFBC4BD3EDF1
:103DD000007A30EE670AF2EE047AB4EEE70AF1EE0A
:103DE00010FA0CDC9FEDB70AFDF776FF0023236382
:103DF0006362A362E362B0EE689A0025DAE0B24B38
:103E00006362B24BA362E362B14B2363B14BA36124
:103E100094ED0C7ADFEDB06AC6EE877AC4ED087ACD
:103E200009B0BDEC048B30BD9DF81B301B021BB2EA
:103E30009DF81A20134307EE103AA84BD3ED006A01
:103E4000B8EEC77A27EE267A84ED037AD4ED097AA4
:103E500037EE877A84ED097A9DF81D301B021BB27C
:103E60009DF81C20134307EE103AB8EEC77A27EEF0
:103E7000267A84ED047AD4ED0A7A37EE877A84EDD7
:103E80000A7A9DF81F301B021BB29DF81E201343B7
:103E900007EE903AF8EEE77A67EEA67AC4ED057A77
:103EA00094ED0B7A77EE277AC4ED0B7AE6E00023E7
:103EB000022B0DD89A1C04EB8202516808AA02EB6F
:103EC000830242F8141C42F8201C0133DBB2EFE7F6
:103ED000B0EE688A78EEC86A814BC3ED006A0023B1
:103EE0003BE00133DBB2022B24D819469A1C04EBC9
:103EF0008202D2ED017A08AA02EB830212ED057A62
:103F0000F4EEC77AF1EE10FA04DD08AA02EB8302A0
:103F100042ED057A08AA02EB810212ED087AF4EE6E
:103F2000C77AF1EE10FADCD508AA02EB810141ED67
:103F3000087AD6E7F0EE498ACCE708AA02EB8302BA
:103F400052ED057A12ED087A77EEC77A654A02EBF0
:103F50008302C2ED007A0133DBB2022BEDD9F6EE1B
:103F6000007AF4EEE76AF1EE10FA00F39C805D4B04
:103F700093ED007ADFED5C7AB4EEE77AF1EE10FAB9
:103F800000F3918093ED017AB4EEE77AF1EE10FA46
:103F900000F3898093ED027AB4EEE77AF1EE10FA3D
:103FA00000F381809FED510AFDF796FE0135ADB219
:103FB000B0EE689A41F26F739D4272D8FFF788FEA7
:103FC0009220FFF7ADFE062206A91220FFF7C0FEE1
:103FD000FFF788FE9DF819301B021BB29DF81820D0
:103FE000134300EE103AB8EEC00A414AD2ED007A0F
:103FF00020EE270A84ED000A9DF81B301B021BB23D
:104000009DF81A100B4307EE103AD2ED006AB8EE95
:10401000C77A27EE267A84ED017A9DF81D301B02BF
:104020001BB29DF81C20134307EE903AF8EEE77A96
:1040300067EEA67AC4ED027A20EE000A27EE077A30
:1040400030EE070A67EEA77A30EE270A04F04AFB43
:10405000F0EE408AD4ED0C7A77EE807AC4ED0C7ADB
:10406000FFF74AFE082206A90020FFF771FEFFF7BE
:104070004DFE9DF818300F2B3FF4D6AE002D3FF4C7
:1040800016AFB4EEE89AF1EE10FA01D5B0EE689AE8
:10409000B4EEE88AF1EE10FA01DDB0EE688A002392
:1040A00021E7F0EE498AD4ED0C6A9FED127AC6EE54
:1040B000877AC4ED0C7A00232CE000BFBC8E000888
:1040C000D40F00200AD7A33BAC38223BB016CE3920
:1040D0003F161B4100002042C3F51C419C000020FC
:1040E000C00F0020C40F00209A99193E6F12033AA6
:1040F000980000200080BB4503F1080204EB820217
:10410000D2ED016A1FED057AC6EE877AC2ED017A1B
:104110000133DBB2022BEFD9FFF7DAFDA220FFF764
:10412000FFFD022206A92220FFF712FEFFF7DAFDAB
:104130009DF818209DF819305B0943EAC203B3F5D6
:10414000806F01DBA3F5006307EE903AF8EEE77AA3
:10415000B4EE007A67EE877AB3EE077A77EE877A65
:10416000C4ED067A2D4A1388013313802C4B93ED4E
:10417000007AF6EE007AB4EEE77AF1EE10FA3FF745
:1041800023AED4ED0C7A9FED277A77EEC77AF0EE66
:10419000E77AB6EE007AF4EEC77AF1EE10FA3FF75E
:1041A00013AE214B93ED007ADFED207AB4EEE77A7F
:1041B000F1EE10FA3FF708AE93ED017AB4EEE77A2C
:1041C000F1EE10FA3FF700AE93ED027AB4EEE77A23
:1041D000F1EE10FA3FF7F8ADD4ED097AF0EEE77A98
:1041E0009FED137AF4EEC77AF1EE10FA3FF7ECADDB
:1041F000D4ED0A7AF0EEE77AF4EEC77AF1EE10FA2F
:104200003FF7E2ADD4ED0B7AF0EEE77AF4EEC77A41
:10421000F1EE10FA3FF7D8ADFAE500BFBC0F002071
:10422000C00F0020CDCC1C41C40F00209A99193E2C
:104230000AD7233C70B5FFF74BFD8020FFF770FDD8
:104240005520FFF76DFD5520FFF76AFD464C2070A5
:10425000FFF748FD012000F075FAFFF739FD8020D7
:10426000FFF75EFD5520FFF75BFD5520FFF758FD7A
:104270002070FFF737FD012000F064FAFFF728FDFA
:10428000B6217E20FFF776FDFFF72CFD502000F0D1
:1042900059FAFFF71DFD8020FFF742FD5520FFF77B
:1042A0003FFD5520FFF73CFD2070FFF71BFD01206F
:1042B00000F048FAFFF70CFD8020FFF731FD552094
:1042C000FFF72EFD5520FFF72BFD2070FFF70AFDAD
:1042D000012000F037FA23781E2B42D1234B002215
:1042E0001A7002E00133214A1370204B1B78052B12
:1042F00035D8FFF7EDFC1D4D2B781D4C03EB430328
:10430000E2185178E05CFFF735FDFFF7EBFC012088
:1043100000F018FAFFF7DCFC2B7803EB4303E05CBA
:1043200040F08000FFF7FCFC5520FFF7F9FC55201A
:10433000FFF7F6FC0C4E3070FFF7D4FC012000F0C4
:1043400001FA2B7803EB43021444617832789142EE
:10435000C8D0A2780749087802430A70C2E7002053
:1043600070BDFF20FCE700BFD00F0020D80F002059
:1043700020980008BE0F002070B5FFF7BDFC3F4C31
:1043800021460020FFF7FEFCFFF7C0FC012000F0F3
:10439000D9F9FFF7B1FC21460020FFF7F3FCFFF746
:1043A000B5FC012000F0CEF9FFF7A6FCB6211420E1
:1043B000FFF7E0FCFFF7AAFC502000F0C3F9FFF77D
:1043C0009BFC21460020FFF7DDFCFFF79FFC01204E
:1043D00000F0B8F9FFF790FC21460020FFF7D2FC6F
:1043E000FFF794FC012000F0ADF923780F2B42D1A8
:1043F000234B00221A7003E0214A13780133137013
:104400001F4B1B78052B34D8FFF776FC1C4D2B78FF
:104410001C4C03EB4303E2185178E05CFFF7AAFC65
:10442000FFF774FC012000F08DF9FFF765FC134ED7
:104430002B7803EB43033146E05CFFF7A3FCFFF767
:1044400065FC012000F07EF92B7803EB4302144455
:10445000617832789142CFD0013BDBB22B7003EB15
:104460004303094A13449B78084A11780B4313709D
:10447000C2E7002070BDFF20FCE700BFD00F002086
:10448000D80F00203498000820980008BE0F0020A4
:1044900038B50D46114B1860114C00232370FFF7FF
:1044A000C9FE237818432070FFF766FF237818436E
:1044B000207075B90B4B0C4A5A620C4A9A62DA6248
:1044C0000B4A1A630B4A1A620B4A9A61044B18781A
:1044D00038BD0448FFF762FCF8E700BF780F002002
:1044E000BE0F00207C0F0020AC38223BB016CE3926
:1044F0003F161B41C48B813F0000204238B5054662
:10450000FFF7E6FB9220FFF70BFC734C06222146D7
:104510001220FFF71DFCFFF7E5FB63781B021BB2BF
:10452000227813436D4A138007EE903AF8EEE77A4B
:104530006B4991ED007A67EE877A95ED087A67EE20
:10454000877AC5ED007AE3781B021BB2A07803439B
:104550001380D1ED006A07EE903AF8EEE77A67EE45
:10456000A67A67EE277AC5ED017A63791B021BB242
:1045700021790B43138007EE903AF8EEE77A67EE65
:10458000A67A67EE277AC5ED027AFFF7B5FB082217
:1045900021460020FFF7DCFBFFF7B8FB23780F2B49
:1045A0002BD0FFF795FBA220FFF7BAFB4A4C022263
:1045B00021462220FFF7CCFBFFF794FB227863789B
:1045C0005B0943EAC203454A1380B3F5806F02DBFF
:1045D000A3F500631380414BB3F9003007EE903A26
:1045E000F8EEE77AB4EE007A67EE877AB3EE077AF0
:1045F00077EE877AC5ED077A38BD3A4B1B78002BEA
:104600003AD0E3781B021BB2A1780B4333490B80ED
:104610003548D0ED006A07EE903AB8EEE77A27EE1B
:10462000267AD5ED097A37EE677A85ED037A6379D4
:104630001B021BB2207903430B8007EE903AB8EEC1
:10464000E77A27EE267AD5ED0A7A37EE677A85ED96
:10465000047AE3791B021BB2A27913430B8007EEA5
:10466000903AF8EEE77A67EEA67A95ED0B7A77EE58
:10467000C77AC5ED057A94E7174AD3781B021BB2B7
:1046800091780B4315490B801748D0ED006A07EE6F
:10469000903AB8EEE77A27EE267A85ED037A5379D9
:1046A0001B021BB2107903430B8007EE903AB8EE61
:1046B000E77A27EE267A85ED047AD3791B021BB2BE
:1046C000927913430B8007EE903AF8EEE77A67EEA3
:1046D000A67AC5ED057A64E7B40F0020B00F00207C
:1046E00098000020A00000209C00002008B50B4B83
:1046F0001A6842F400721A601A6842F480621A6002
:104700001A6842F480721A60032000F02FF80F201C
:10471000FEF77AFEFEF756FE002008BD003C024080
:10472000034A1168034B1B780B441360704700BFAA
:10473000DC0F0020A1000020014B1868704700BF6B
:10474000DC0F002038B50446FFF7F6FF0546B4F14C
:10475000FF3F02D0044B1B781C44FFF7EDFF401BCA
:10476000A042FAD338BD00BFA1000020074AD36899
:1047700023F4E0631B041B0C000200F4E06003431D
:1047800043F0BF6343F40033D360704700ED00E0B3
:1047900000B5194BDB68C3F30223C3F1070CBCF16E
:1047A000040F28BF4FF0040C03F1040EBEF1060FF6
:1047B00018D9033B4FF0FF3E0EFA0CFC21EA0C0126
:1047C00099400EFA03F322EA0303194300280BDB96
:1047D0000901C9B200F1604000F5614080F80013A2
:1047E0005DF804FB0023E5E700F00F000901C9B202
:1047F000024B1954F4E700BF00ED00E014ED00E0B7
:10480000002807DB00F01F02400901239340024A01
:1048100042F82030704700BF00E100E010B40368A8
:10482000D9B210390C4AA2FB014212090B4CA25C0E
:10483000C2655F2909D923F47F7323F0030304338E
:104840008365806D5DF8044B704723F47F7323F01C
:1048500003038365F5E700BFABAAAAAA489800083E
:10486000836A826992B9012B0AD0022B02D00BB164
:1048700000207047C36A13F0807F28D10020704762
:10488000C36AB3F1C07F24D000207047B2F5005F47
:1048900009D0022B25D9032B25D1C36A13F0807FC1
:1048A00023D100207047032B03D8DFE803F0140462
:1048B000140A00207047C36A13F0807F0DD10020D6
:1048C0007047C36AB3F1C07F09D000207047012050
:1048D0007047012070470120704701207047012078
:1048E000704701207047002070470120704700008A
:1048F00070B50446FFF720FF002C5BD0054602236D
:1049000084F83530002384F834302268136823F0AB
:104910000103136023681A6812F0010F0AD0FFF731
:104920000BFF431B052BF5D920236365032084F877
:10493000350070BD1A68204810406168A2680A43BB
:10494000E1680A4321690A4361690A43A1690A438C
:10495000E1690A43216A0A430243616A04291ED0BD
:104960001A602668756925F00705636A1D43042BE4
:1049700007D1A36A1D43E36A1BB12046FFF770FF0E
:1049800090B975612046FFF749FFE26D3F239340E0
:10499000836000206065012384F83530C9E7E16A4F
:1049A000206B01430A43DBE740236365012084F861
:1049B0003500BEE70120BCE73F8010F000230F2B3D
:1049C00000F2E48070B582B060E085685E00032488
:1049D000B44025EA0405CC68B4402C4384604568A3
:1049E00025EA02054C68C4F300129A402A4342604B
:1049F0005AE0DC08083450F8246003F00702950000
:104A00000F22AA4026EA020E0A69AA4042EA0E02D2
:104A100040F824205CE0072200E0002202FA0EF2B7
:104A20002A4302345A4D45F824205A4A94686FEAC2
:104A30000C0224EA0C054E6816F4801F01D04CEAE3
:104A40000405544CA560E46802EA04054E6816F4B7
:104A5000001F01D04CEA04054E4CE560646802EA90
:104A600004054E6816F4003F01D04CEA0405494C99
:104A70006560246822404D6815F4803F01D04CEAFF
:104A80000402444C226001330F2B7DD801229A404E
:104A90000C6804EA020C32EA0404F4D14C6804F015
:104AA0000304013C012C90D94A6802F00302032A56
:104AB00009D0C4685D000322AA4024EA02048A687F
:104AC000AA402243C2604A6802F00302022A90D040
:104AD00004684FEA430E032202FA0EF224EA0204AB
:104AE0004A6802F0030202FA0EF2224302604A68A8
:104AF00012F4403FC7D000220192274A546C44F47C
:104B000080445464526C02F480420192019A9C08E1
:104B1000A51C1F4A52F8255003F003024FEA820EEB
:104B20000F2202FA0EF225EA02051C4A90423FF4D7
:104B300074AF02F5806290421AD002F58062904212
:104B400018D002F58062904216D002F58062904241
:104B500014D002F58062904212D002F58062904239
:104B600010D002F5806290423FF455AF082255E71D
:104B7000012253E7022251E703224FE704224DE7C7
:104B800005224BE7062249E702B070BD704700BF1F
:104B900000380140003C0140003802400000024063
:104BA0000AB181617047090481617047436901EA74
:104BB000030221EA030141EA024181617047704723
:104BC00008B5054B5B69034200D108BD024B586133
:104BD000FFF7F5FFF9E700BF003C0140002800F0B7
:104BE000E08170B582B00446036813F0010F3BD03A
:104BF0009F4B9B6803F00C03042B2CD09C4B9B68B1
:104C000003F00C03082B21D06368B3F5803F4FD02D
:104C1000B3F5A02F52D0964B1A6822F480321A6056
:104C20001A6822F480221A606368002B50D0FFF7C4
:104C300083FD05468E4B1B6813F4003F14D1FFF72C
:104C40007BFD401B6428F5D90320B1E1884B5B68EC
:104C500013F4800FD8D0864B1B6813F4003F03D0A9
:104C60006368002B00F09F81236813F0020F54D07B
:104C70007F4B9B6813F00C0F3ED07D4B9B6803F07D
:104C80000C03082B33D0E368002B68D0794B01224A
:104C90001A60FFF751FD0546754B1B6813F0020FB4
:104CA00054D1FFF749FD401B0228F5D903207FE1CD
:104CB0006F4A136843F480331360B5E76C4B1A688E
:104CC00042F480221A601A6842F480321A60ABE71C
:104CD000FFF732FD0546664B1B6813F4003FC3D057
:104CE000FFF72AFD401B6428F5D9032060E1604BE3
:104CF0005B6813F4800FC6D15D4B1B6813F0020F85
:104D000003D0E368012B40F05081594A136823F027
:104D1000F803216943EAC1031360236813F0080F05
:104D200042D063696BB3534B0122C3F8802EFFF767
:104D300003FD05464E4B5B6F13F0020F34D1FFF7B6
:104D4000FBFC401B0228F5D9032031E1484A1368D7
:104D500023F0F803216943EAC1031360DDE7454B03
:104D600000221A60FFF7E8FC0546414B1B6813F070
:104D7000020FD2D0FFF7E0FC401B0228F5D9032038
:104D800016E13C4B0022C3F8802EFFF7D5FC054608
:104D9000374B5B6F13F0020F06D0FFF7CDFC401BC3
:104DA0000228F5D9032003E1236813F0040F77D01C
:104DB0002F4B1B6C13F0805F33D1002301932C4BDE
:104DC0001A6C42F080521A641B6C03F080530193FA
:104DD000019B0125284B1B6813F4807F23D0A36817
:104DE000012B34D0052B38D0214B1A6F22F0010251
:104DF0001A671A6F22F004021A67A368002B3DD0CD
:104E0000FFF79AFC06461A4B1B6F13F0020F46D1B0
:104E1000FFF792FC801B41F288339842F3D90320BC
:104E2000C6E00025D6E7144A136843F48073136084
:104E3000FFF782FC0646104B1B6813F4807FCED12F
:104E4000FFF77AFC801B0228F5D90320B0E0084A5E
:104E5000136F43F001031367CFE7054B1A6F42F05E
:104E600004021A671A6F42F001021A67C5E700BF11
:104E7000003802400000474200700040FFF75CFC31
:104E80000646524B1B6F13F0020F08D0FFF754FC7D
:104E9000801B41F288339842F3D9032088E0EDB9B2
:104EA000A369002B00F08380484A926802F00C024C
:104EB000082A51D0022B17D0454B00221A66FFF763
:104EC0003BFC0446414B1B6813F0007F42D0FFF7C8
:104ED00033FC001B0228F5D9032069E03B4A136C20
:104EE00023F080531364DBE7394B00221A66FFF787
:104EF00023FC0546354B1B6813F0007F06D0FFF7F7
:104F00001BFC401B0228F5D9032051E0E369226A0B
:104F10001343626A43EA8213A26A5208013A43EADF
:104F20000243E26A43EA0263284A5360284B0122A3
:104F30001A66FFF701FC0446244B1B6813F0007F40
:104F400006D1FFF7F9FB001B0228F5D903202FE05B
:104F500000202DE000202BE0012B2BD01B4B5B68A9
:104F600003F48001E269914226D103F03F02216AF5
:104F70008A4223D1616A47F6C0721A40B2EB811FA0
:104F80001ED103F44031A26A5208013AB1EB024F3C
:104F900018D103F07063E26AB3EB026F14D1002002
:104FA00006E001207047012002E0012000E000201F
:104FB00002B070BD0120FBE70120F9E70120F7E70F
:104FC0000120F5E70120F3E70120F1E70038024076
:104FD0000000474208B5254B9B6803F00C03042BE7
:104FE0003FD0082B3FD1214B5A6802F03F025B684B
:104FF00013F4800F12D01D4B5968C1F388111C485F
:105000000023A1FB0001FBF7E3F8184B5B68C3F337
:10501000014301335B00B0FBF3F025E0134B59680B
:10502000C1F3881C4FEA4C11B1EB0C006EEB0E0E75
:105030004FEA8E1343EA90638101091A63EB0E0372
:10504000DB0043EA5173C90011EB0C0C43F1000380
:10505000990200234FEA8C2041EA9C51FBF7B8F8F3
:10506000D3E7034800E0034808BD00BF0038024012
:10507000001BB7000024F400002800F09B8070B5EE
:105080000D4604464F4B1B6803F007038B4208D2C2
:10509000CBB24C4A1370136803F007038B4240F005
:1050A0008B80236813F0020F17D013F0040F04D085
:1050B000454A936843F4E0539360236813F0080F64
:1050C00004D0414A936843F4604393603E4A936836
:1050D00023F0F003A1680B439360236813F0010FE2
:1050E00032D06368012B21D09A1E012A25D9364A75
:1050F000126812F0020F61D033498A6822F003026D
:1051000013438B60FFF718FB06462F4B9B6803F099
:105110000C036268B3EB820F16D0FFF70DFB801B08
:1051200041F288339842F0D9032042E0264A1268BF
:1051300012F4003FE0D101203BE0234A126812F054
:10514000007FD9D1012034E01E4B1B6803F0070318
:10515000AB4207D9EAB21B4B1A701B6803F0070376
:10516000AB422DD1236813F0040F06D0164A936882
:1051700023F4E053E1680B439360236813F0080FB6
:1051800007D0114A936823F46043216943EAC103BD
:105190009360FFF71FFF0C4B9B68C3F303130B4A8D
:1051A000D35CD8400A4B18600A4B1868FEF72CF9FC
:1051B000002070BD012070470120FAE70120F8E7C8
:1051C0000120F6E7003C024000380240049000084D
:1051D00094000020A4000020014B1868704700BF15
:1051E0009400002008B5FFF7F7FF044B9B68C3F35A
:1051F0008223034AD35CD84008BD00BF0038024078
:10520000149000080F2303600B4B9A6802F003020E
:1052100042609A6802F0F00282609A6802F4E052FA
:10522000C2609B68DB0803F4E0530361034B1B6817
:1052300003F007030B60704700380240003C024057
:105240002DE9F04782B00546884617461E46FFF70F
:1052500073FA0A9B1B1A03EB0609FFF76DFA8246E5
:105260002B4B1B68C3F3CB3309FB03F301932B6870
:105270009C6838EA04030CBF4FF0010C4FF0000C9F
:10528000BC4540D0B6F1FF3FF1D0FFF755FAA0EB97
:105290000A0048450AD2B9F1000F07D0019A02B1BD
:1052A0004A46019B013B01939146E0E72A68536817
:1052B00023F0E00353606B68B3F5827F0BD0AB6AD9
:1052C000B3F5005F14D0012385F85130002385F831
:1052D0005030032018E0AB68B3F5004F02D0B3F5AF
:1052E000806FECD12A68136823F040031360E6E76F
:1052F0002A68136823F4005313602A68136843F480
:1053000000531360DFE7002002B0BDE8F08700BF64
:105310009400002070B584B004460D4616460092F5
:105320000B4601220221FFF78BFFD0B9174B1B68F8
:10533000174AA2FB03235B0D4FF47A7202FB03F3BF
:1053400003936368B3F5827F11D0039B3BB1039B4A
:10535000013B039323689B6813F0800FF5D104B0E1
:1053600070BD636D43F0200363650320F7E700968B
:105370002B46002280212046FFF762FF0028EED056
:10538000636D43F0200363650320E8E79400002089
:10539000819F5E1600285AD010B50446436A33B97F
:1053A0004368B3F5827F05D00023C36102E0002388
:1053B000036143610023A36294F85130002B40D075
:1053C000022384F851302268136823F040031360ED
:1053D000636803F48273A26802F404421343E26830
:1053E00002F400621343226902F00202134362696D
:1053F00002F001021343A26902F400721343E2694E
:1054000002F038021343226A02F080021343A26AB8
:1054100002F40052216813430B60638B03F0040312
:10542000626A02F01002216813434B602268D3695C
:1054300023F40063D36100206065012384F85130B8
:1054400010BD84F850302046FDF724FFB8E7012056
:1054500070472DE9F04383B00446884691461F46C5
:105460000A9DFFF769F9064694F85130DBB262688D
:10547000012B0AD0B2F5827F40F00581A268002A94
:1054800040F00581042B40F00481B8F1000F00F0DA
:105490000281B9F1000F00F00081002F00F0FF80C1
:1054A00094F85030012B00F0FC80012384F8503038
:1054B00094F85130DBB2042B02D0052384F851302C
:1054C00000236365C4F83890E787A787C4F8308065
:1054D000E786A7862364636423681A6812F0400F86
:1054E00003D11A6842F040021A60E368B3F5006F16
:1054F00011D063680BB1012F0BD1226B2368127896
:105500001A73236B01332363E38E9BB2013B9BB27F
:10551000E386012771E063680BB1012F0BD1226B89
:1055200023681288DA60236B02332363E38E9BB215
:10553000013B9BB2E38601271BE023689A6812F0C7
:10554000010F0ED0E28F92B25AB1DA68A36B1A80C3
:10555000A36B0233A363E38F9BB2013B9BB2E38750
:105560000127FFF7E9F8801BA84202D3B5F1FF3FFE
:105570001ED1E38E9BB21BB9E38F9BB2002B62D08E
:1055800023689A6812F0020FD7D0E28E92B2002AF6
:10559000D3D0002FD1D0226B1288DA60236B023374
:1055A0002363E38E9BB2013B9BB2E3860027C4E7F3
:1055B000012384F85130002384F85030032063E045
:1055C00023689A6812F0010F0ED0E28F92B25AB19E
:1055D000DA68A36B1A70A36B0133A363E38F9BB2EA
:1055E000013B9BB2E3870127FFF7A6F8831BAB4281
:1055F00002D3B5F1FF3F1ED1EDB1E38E9BB213B9DB
:10560000E38F9BB2FBB123689A6812F0020FD7D0E8
:10561000E28E92B2002AD3D0002FD1D0226B127822
:105620001A73236B01332363E38E9BB2013B9BB25E
:10563000E3860027C4E7012384F85130002384F86F
:105640005030032020E0324629462046FFF762FE14
:1056500090B9A36833B901932368DA6801929B6813
:105660000193019B012384F85130002384F85030CA
:10567000636D4BB1012007E020236365002384F8AC
:105680005030012000E0022003B0BDE8F08302208A
:10569000FAE70220F8E70120F6E70120F4E701200D
:1056A000F2E70220F0E7000030B4036A026A22F059
:1056B000010202624268846924F073040D682C437D
:1056C00023F0020C8B6843EA0C03104DA84203D070
:1056D00005F58065A84205D123F00803CD682B436A
:1056E00023F00403094DA84203D005F58065A842C4
:1056F00005D122F440724D692A438D692A434260E4
:1057000084614A684263036230BC70470000014014
:1057100030B4036A026A22F4807202624268C46989
:1057200024F0730C0C6844EA0C0523F400738C68B5
:1057300043EA0423114CA04203D004F58064A04244
:1057400006D123F40063CC6843EA042323F4806386
:105750000A4CA04203D004F58064A04207D122F491
:1057600040524C6942EA04128C6942EA04124260D7
:10577000C5614A68C263036230BC704700000140E3
:1057800030B4036A026A22F4805202624468C26939
:1057900022F4E6420D6842EA052223F400538D68A4
:1057A00043EA0533094DA84203D005F58065A842B8
:1057B00004D124F480444D6944EA85144460C261F4
:1057C0004A680264036230BC704700BF00000140B9
:1057D00090F83D30DBB2012B37D1022380F83D3009
:1057E0000268D36843F00103D3600368194A934207
:1057F00020D0B3F1804F1DD0A2F57C42934219D046
:1058000002F58062934215D002F58062934211D076
:1058100002F5784293420DD002F57052934209D0BE
:10582000A2F59432934205D01A6842F001021A6040
:10583000002070479A6802F00702062A07D01A680B
:1058400042F001021A6000207047012070470020DA
:10585000704700BF000001407047704770477047B5
:10586000704770B504460368DE681D6915F0020FC5
:1058700010D016F0020F0DD06FF002021A61012352
:10588000037703689B6913F0030F5ED0FFF7E6FF11
:105890000023237715F0040F12D016F0040F0FD059
:1058A00023686FF004021A610223237723689B693F
:1058B00013F4407F4FD02046FFF7D0FF002323771B
:1058C00015F0080F12D016F0080F0FD023686FF0F4
:1058D00008021A61042323772368DB6913F0030F9E
:1058E00040D02046FFF7BAFF0023237715F0100FB2
:1058F00012D016F0100F0FD023686FF010021A614B
:10590000082323772368DB6913F4407F31D02046D6
:10591000FFF7A4FF0023237715F0010F02D016F044
:10592000010F2DD115F0800F02D016F0800F2FD16E
:1059300015F0400F02D016F0400F31D115F0200FB6
:1059400002D016F0200F33D170BDFFF786FF20463E
:10595000FFF785FF9CE72046FFF77FFF2046FFF714
:105960007EFFABE72046FFF778FF2046FFF777FF83
:10597000BAE72046FFF771FF2046FFF770FFC9E73F
:1059800023686FF001021A612046FDF7DBFBC9E7CF
:1059900023686FF080021A61204600F00EFAC7E714
:1059A00023686FF040021A612046FFF759FFC5E7F0
:1059B00023686FF020021A61204600F0FDF9C3E76A
:1059C0000368344A904212D0B0F1804F0FD0A2F554
:1059D0007C4290420BD002F58062904207D002F5E3
:1059E0008062904203D002F57842904203D123F0C6
:1059F00070034A681343274A90422AD0B0F1804F7F
:105A000027D0A2F57C42904223D002F580629042DA
:105A10001FD002F5806290421BD002F5784290427E
:105A200017D002F57052904213D002F58062904276
:105A30000FD002F5806290420BD0A2F598329042CE
:105A400007D002F58062904203D002F58062904256
:105A500003D123F44073CA68134323F080034A69D7
:105A6000134303608B68C3620B688362094B9842DF
:105A700003D003F58063984201D10B6903630123CE
:105A80004361036913F0010F03D0036923F001039D
:105A9000036170470000014040B310B5044690F820
:105AA0003D30F3B1022384F83D30214651F8040B18
:105AB000FFF786FF012384F8463084F83E3084F8EF
:105AC0003F3084F8403084F8413084F8423084F824
:105AD000433084F8443084F8453084F83D30002069
